{
  "contractName": "CubeToken2",
  "abi": [
    {
      "inputs": [],
      "stateMutability": "nonpayable",
      "type": "constructor"
    },
    {
      "inputs": [],
      "name": "InvalidShortString",
      "type": "error"
    },
    {
      "inputs": [
        {
          "internalType": "string",
          "name": "str",
          "type": "string"
        }
      ],
      "name": "StringTooLong",
      "type": "error"
    },
    {
      "anonymous": false,
      "inputs": [
        {
          "indexed": true,
          "internalType": "address",
          "name": "owner",
          "type": "address"
        },
        {
          "indexed": true,
          "internalType": "address",
          "name": "spender",
          "type": "address"
        },
        {
          "indexed": false,
          "internalType": "uint256",
          "name": "value",
          "type": "uint256"
        }
      ],
      "name": "Approval",
      "type": "event"
    },
    {
      "anonymous": false,
      "inputs": [],
      "name": "EIP712DomainChanged",
      "type": "event"
    },
    {
      "anonymous": false,
      "inputs": [
        {
          "indexed": true,
          "internalType": "address",
          "name": "previousOwner",
          "type": "address"
        },
        {
          "indexed": true,
          "internalType": "address",
          "name": "newOwner",
          "type": "address"
        }
      ],
      "name": "OwnershipTransferred",
      "type": "event"
    },
    {
      "anonymous": false,
      "inputs": [
        {
          "indexed": false,
          "internalType": "address",
          "name": "account",
          "type": "address"
        }
      ],
      "name": "Paused",
      "type": "event"
    },
    {
      "anonymous": false,
      "inputs": [
        {
          "indexed": true,
          "internalType": "address",
          "name": "from",
          "type": "address"
        },
        {
          "indexed": true,
          "internalType": "address",
          "name": "to",
          "type": "address"
        },
        {
          "indexed": false,
          "internalType": "uint256",
          "name": "value",
          "type": "uint256"
        }
      ],
      "name": "Transfer",
      "type": "event"
    },
    {
      "anonymous": false,
      "inputs": [
        {
          "indexed": false,
          "internalType": "address",
          "name": "account",
          "type": "address"
        }
      ],
      "name": "Unpaused",
      "type": "event"
    },
    {
      "inputs": [],
      "name": "DOMAIN_SEPARATOR",
      "outputs": [
        {
          "internalType": "bytes32",
          "name": "",
          "type": "bytes32"
        }
      ],
      "stateMutability": "view",
      "type": "function",
      "constant": true
    },
    {
      "inputs": [],
      "name": "INITIAL_SUPPLY",
      "outputs": [
        {
          "internalType": "uint256",
          "name": "",
          "type": "uint256"
        }
      ],
      "stateMutability": "view",
      "type": "function",
      "constant": true
    },
    {
      "inputs": [
        {
          "internalType": "address",
          "name": "owner",
          "type": "address"
        },
        {
          "internalType": "address",
          "name": "spender",
          "type": "address"
        }
      ],
      "name": "allowance",
      "outputs": [
        {
          "internalType": "uint256",
          "name": "",
          "type": "uint256"
        }
      ],
      "stateMutability": "view",
      "type": "function",
      "constant": true
    },
    {
      "inputs": [
        {
          "internalType": "address",
          "name": "spender",
          "type": "address"
        },
        {
          "internalType": "uint256",
          "name": "amount",
          "type": "uint256"
        }
      ],
      "name": "approve",
      "outputs": [
        {
          "internalType": "bool",
          "name": "",
          "type": "bool"
        }
      ],
      "stateMutability": "nonpayable",
      "type": "function"
    },
    {
      "inputs": [
        {
          "internalType": "address",
          "name": "account",
          "type": "address"
        }
      ],
      "name": "balanceOf",
      "outputs": [
        {
          "internalType": "uint256",
          "name": "",
          "type": "uint256"
        }
      ],
      "stateMutability": "view",
      "type": "function",
      "constant": true
    },
    {
      "inputs": [
        {
          "internalType": "uint256",
          "name": "amount",
          "type": "uint256"
        }
      ],
      "name": "burn",
      "outputs": [],
      "stateMutability": "nonpayable",
      "type": "function"
    },
    {
      "inputs": [
        {
          "internalType": "address",
          "name": "account",
          "type": "address"
        },
        {
          "internalType": "uint256",
          "name": "amount",
          "type": "uint256"
        }
      ],
      "name": "burnFrom",
      "outputs": [],
      "stateMutability": "nonpayable",
      "type": "function"
    },
    {
      "inputs": [],
      "name": "decimals",
      "outputs": [
        {
          "internalType": "uint8",
          "name": "",
          "type": "uint8"
        }
      ],
      "stateMutability": "view",
      "type": "function",
      "constant": true
    },
    {
      "inputs": [
        {
          "internalType": "address",
          "name": "spender",
          "type": "address"
        },
        {
          "internalType": "uint256",
          "name": "subtractedValue",
          "type": "uint256"
        }
      ],
      "name": "decreaseAllowance",
      "outputs": [
        {
          "internalType": "bool",
          "name": "",
          "type": "bool"
        }
      ],
      "stateMutability": "nonpayable",
      "type": "function"
    },
    {
      "inputs": [],
      "name": "eip712Domain",
      "outputs": [
        {
          "internalType": "bytes1",
          "name": "fields",
          "type": "bytes1"
        },
        {
          "internalType": "string",
          "name": "name",
          "type": "string"
        },
        {
          "internalType": "string",
          "name": "version",
          "type": "string"
        },
        {
          "internalType": "uint256",
          "name": "chainId",
          "type": "uint256"
        },
        {
          "internalType": "address",
          "name": "verifyingContract",
          "type": "address"
        },
        {
          "internalType": "bytes32",
          "name": "salt",
          "type": "bytes32"
        },
        {
          "internalType": "uint256[]",
          "name": "extensions",
          "type": "uint256[]"
        }
      ],
      "stateMutability": "view",
      "type": "function",
      "constant": true
    },
    {
      "inputs": [
        {
          "internalType": "address",
          "name": "spender",
          "type": "address"
        },
        {
          "internalType": "uint256",
          "name": "addedValue",
          "type": "uint256"
        }
      ],
      "name": "increaseAllowance",
      "outputs": [
        {
          "internalType": "bool",
          "name": "",
          "type": "bool"
        }
      ],
      "stateMutability": "nonpayable",
      "type": "function"
    },
    {
      "inputs": [],
      "name": "name",
      "outputs": [
        {
          "internalType": "string",
          "name": "",
          "type": "string"
        }
      ],
      "stateMutability": "view",
      "type": "function",
      "constant": true
    },
    {
      "inputs": [
        {
          "internalType": "address",
          "name": "owner",
          "type": "address"
        }
      ],
      "name": "nonces",
      "outputs": [
        {
          "internalType": "uint256",
          "name": "",
          "type": "uint256"
        }
      ],
      "stateMutability": "view",
      "type": "function",
      "constant": true
    },
    {
      "inputs": [],
      "name": "owner",
      "outputs": [
        {
          "internalType": "address",
          "name": "",
          "type": "address"
        }
      ],
      "stateMutability": "view",
      "type": "function",
      "constant": true
    },
    {
      "inputs": [],
      "name": "paused",
      "outputs": [
        {
          "internalType": "bool",
          "name": "",
          "type": "bool"
        }
      ],
      "stateMutability": "view",
      "type": "function",
      "constant": true
    },
    {
      "inputs": [
        {
          "internalType": "address",
          "name": "owner",
          "type": "address"
        },
        {
          "internalType": "address",
          "name": "spender",
          "type": "address"
        },
        {
          "internalType": "uint256",
          "name": "value",
          "type": "uint256"
        },
        {
          "internalType": "uint256",
          "name": "deadline",
          "type": "uint256"
        },
        {
          "internalType": "uint8",
          "name": "v",
          "type": "uint8"
        },
        {
          "internalType": "bytes32",
          "name": "r",
          "type": "bytes32"
        },
        {
          "internalType": "bytes32",
          "name": "s",
          "type": "bytes32"
        }
      ],
      "name": "permit",
      "outputs": [],
      "stateMutability": "nonpayable",
      "type": "function"
    },
    {
      "inputs": [],
      "name": "renounceOwnership",
      "outputs": [],
      "stateMutability": "nonpayable",
      "type": "function"
    },
    {
      "inputs": [],
      "name": "symbol",
      "outputs": [
        {
          "internalType": "string",
          "name": "",
          "type": "string"
        }
      ],
      "stateMutability": "view",
      "type": "function",
      "constant": true
    },
    {
      "inputs": [],
      "name": "totalSupply",
      "outputs": [
        {
          "internalType": "uint256",
          "name": "",
          "type": "uint256"
        }
      ],
      "stateMutability": "view",
      "type": "function",
      "constant": true
    },
    {
      "inputs": [
        {
          "internalType": "address",
          "name": "to",
          "type": "address"
        },
        {
          "internalType": "uint256",
          "name": "amount",
          "type": "uint256"
        }
      ],
      "name": "transfer",
      "outputs": [
        {
          "internalType": "bool",
          "name": "",
          "type": "bool"
        }
      ],
      "stateMutability": "nonpayable",
      "type": "function"
    },
    {
      "inputs": [
        {
          "internalType": "address",
          "name": "from",
          "type": "address"
        },
        {
          "internalType": "address",
          "name": "to",
          "type": "address"
        },
        {
          "internalType": "uint256",
          "name": "amount",
          "type": "uint256"
        }
      ],
      "name": "transferFrom",
      "outputs": [
        {
          "internalType": "bool",
          "name": "",
          "type": "bool"
        }
      ],
      "stateMutability": "nonpayable",
      "type": "function"
    },
    {
      "inputs": [
        {
          "internalType": "address",
          "name": "newOwner",
          "type": "address"
        }
      ],
      "name": "transferOwnership",
      "outputs": [],
      "stateMutability": "nonpayable",
      "type": "function"
    },
    {
      "inputs": [],
      "name": "pause",
      "outputs": [],
      "stateMutability": "nonpayable",
      "type": "function"
    },
    {
      "inputs": [],
      "name": "unpause",
      "outputs": [],
      "stateMutability": "nonpayable",
      "type": "function"
    },
    {
      "inputs": [
        {
          "internalType": "address",
          "name": "to",
          "type": "address"
        },
        {
          "internalType": "uint256",
          "name": "amount",
          "type": "uint256"
        }
      ],
      "name": "mint",
      "outputs": [],
      "stateMutability": "nonpayable",
      "type": "function"
    }
  ],
  "bytecode": "0x6101606040526377359400600a5534801562000019575f80fd5b506040518060400160405280600a81526020017f43756265546f6b656e3200000000000000000000000000000000000000000000815250806040518060400160405280600181526020017f31000000000000000000000000000000000000000000000000000000000000008152506040518060400160405280601481526020017f4375626520546f6b656e2042616c6967616d65730000000000000000000000008152506040518060400160405280600581526020017f43554245320000000000000000000000000000000000000000000000000000008152508160039081620001049190620008a4565b508060049081620001169190620008a4565b5050505f60055f6101000a81548160ff02191690831515021790555062000152620001466200024760201b60201c565b6200024e60201b60201c565b620001686006836200031360201b90919060201c565b6101208181525050620001866007826200031360201b90919060201c565b6101408181525050818051906020012060e08181525050808051906020012061010081815250504660a08181525050620001c56200036860201b60201c565b608081815250503073ffffffffffffffffffffffffffffffffffffffff1660c08173ffffffffffffffffffffffffffffffffffffffff1681525050505050620002413362000218620003c460201b60201c565b600a62000226919062000b11565b600a5462000235919062000b61565b620003cc60201b60201c565b62000eef565b5f33905090565b5f600560019054906101000a900473ffffffffffffffffffffffffffffffffffffffff16905081600560016101000a81548173ffffffffffffffffffffffffffffffffffffffff021916908373ffffffffffffffffffffffffffffffffffffffff1602179055508173ffffffffffffffffffffffffffffffffffffffff168173ffffffffffffffffffffffffffffffffffffffff167f8be0079c531659141344cd1fd0a4f28419497f9722a3daafe3b4186f6b6457e060405160405180910390a35050565b5f602083511015620003385762000330836200053160201b60201c565b905062000362565b826200034a836200059b60201b60201c565b5f0190816200035a9190620008a4565b5060ff5f1b90505b92915050565b5f7f8b73c3c69bb8fe3d512ecc4cf759cc79239f7b179b0ffacaa9a75d522b39400f60e051610100514630604051602001620003a995949392919062000c19565b60405160208183030381529060405280519060200120905090565b5f6012905090565b5f73ffffffffffffffffffffffffffffffffffffffff168273ffffffffffffffffffffffffffffffffffffffff16036200043d576040517f08c379a0000000000000000000000000000000000000000000000000000000008152600401620004349062000cd2565b60405180910390fd5b620004505f8383620005a460201b60201c565b8060025f82825462000463919062000cf2565b92505081905550805f808473ffffffffffffffffffffffffffffffffffffffff1673ffffffffffffffffffffffffffffffffffffffff1681526020019081526020015f205f82825401925050819055508173ffffffffffffffffffffffffffffffffffffffff165f73ffffffffffffffffffffffffffffffffffffffff167fddf252ad1be2c89b69c2b068fc378daa952ba7f163c4a11628f55a4df523b3ef8360405162000512919062000d2c565b60405180910390a36200052d5f8383620005cc60201b60201c565b5050565b5f80829050601f815111156200058057826040517f305a27a900000000000000000000000000000000000000000000000000000000815260040162000577919062000dc1565b60405180910390fd5b8051816200058e9062000e12565b5f1c175f1b915050919050565b5f819050919050565b620005b4620005d160201b60201c565b620005c78383836200062660201b60201c565b505050565b505050565b620005e16200062b60201b60201c565b1562000624576040517f08c379a00000000000000000000000000000000000000000000000000000000081526004016200061b9062000ecf565b60405180910390fd5b565b505050565b5f60055f9054906101000a900460ff16905090565b5f81519050919050565b7f4e487b71000000000000000000000000000000000000000000000000000000005f52604160045260245ffd5b7f4e487b71000000000000000000000000000000000000000000000000000000005f52602260045260245ffd5b5f6002820490506001821680620006bc57607f821691505b602082108103620006d257620006d162000677565b5b50919050565b5f819050815f5260205f209050919050565b5f6020601f8301049050919050565b5f82821b905092915050565b5f60088302620007367fffffffffffffffffffffffffffffffffffffffffffffffffffffffffffffffff82620006f9565b620007428683620006f9565b95508019841693508086168417925050509392505050565b5f819050919050565b5f819050919050565b5f6200078c6200078662000780846200075a565b62000763565b6200075a565b9050919050565b5f819050919050565b620007a7836200076c565b620007bf620007b68262000793565b84845462000705565b825550505050565b5f90565b620007d5620007c7565b620007e28184846200079c565b505050565b5b818110156200080957620007fd5f82620007cb565b600181019050620007e8565b5050565b601f82111562000858576200082281620006d8565b6200082d84620006ea565b810160208510156200083d578190505b620008556200084c85620006ea565b830182620007e7565b50505b505050565b5f82821c905092915050565b5f6200087a5f19846008026200085d565b1980831691505092915050565b5f62000894838362000869565b9150826002028217905092915050565b620008af8262000640565b67ffffffffffffffff811115620008cb57620008ca6200064a565b5b620008d78254620006a4565b620008e48282856200080d565b5f60209050601f8311600181146200091a575f841562000905578287015190505b62000911858262000887565b86555062000980565b601f1984166200092a86620006d8565b5f5b8281101562000953578489015182556001820191506020850194506020810190506200092c565b868310156200097357848901516200096f601f89168262000869565b8355505b6001600288020188555050505b505050505050565b7f4e487b71000000000000000000000000000000000000000000000000000000005f52601160045260245ffd5b5f8160011c9050919050565b5f808291508390505b600185111562000a1257808604811115620009ea57620009e962000988565b5b6001851615620009fa5780820291505b808102905062000a0a85620009b5565b9450620009ca565b94509492505050565b5f8262000a2c576001905062000afe565b8162000a3b575f905062000afe565b816001811462000a54576002811462000a5f5762000a95565b600191505062000afe565b60ff84111562000a745762000a7362000988565b5b8360020a91508482111562000a8e5762000a8d62000988565b5b5062000afe565b5060208310610133831016604e8410600b841016171562000acf5782820a90508381111562000ac95762000ac862000988565b5b62000afe565b62000ade8484846001620009c1565b9250905081840481111562000af85762000af762000988565b5b81810290505b9392505050565b5f60ff82169050919050565b5f62000b1d826200075a565b915062000b2a8362000b05565b925062000b597fffffffffffffffffffffffffffffffffffffffffffffffffffffffffffffffff848462000a1b565b905092915050565b5f62000b6d826200075a565b915062000b7a836200075a565b925082820262000b8a816200075a565b9150828204841483151762000ba45762000ba362000988565b5b5092915050565b5f819050919050565b62000bbf8162000bab565b82525050565b62000bd0816200075a565b82525050565b5f73ffffffffffffffffffffffffffffffffffffffff82169050919050565b5f62000c018262000bd6565b9050919050565b62000c138162000bf5565b82525050565b5f60a08201905062000c2e5f83018862000bb4565b62000c3d602083018762000bb4565b62000c4c604083018662000bb4565b62000c5b606083018562000bc5565b62000c6a608083018462000c08565b9695505050505050565b5f82825260208201905092915050565b7f45524332303a206d696e7420746f20746865207a65726f2061646472657373005f82015250565b5f62000cba601f8362000c74565b915062000cc78262000c84565b602082019050919050565b5f6020820190508181035f83015262000ceb8162000cac565b9050919050565b5f62000cfe826200075a565b915062000d0b836200075a565b925082820190508082111562000d265762000d2562000988565b5b92915050565b5f60208201905062000d415f83018462000bc5565b92915050565b5f5b8381101562000d6657808201518184015260208101905062000d49565b5f8484015250505050565b5f601f19601f8301169050919050565b5f62000d8d8262000640565b62000d99818562000c74565b935062000dab81856020860162000d47565b62000db68162000d71565b840191505092915050565b5f6020820190508181035f83015262000ddb818462000d81565b905092915050565b5f81519050919050565b5f819050602082019050919050565b5f62000e09825162000bab565b80915050919050565b5f62000e1e8262000de3565b8262000e2a8462000ded565b905062000e378162000dfc565b9250602082101562000e7a5762000e757fffffffffffffffffffffffffffffffffffffffffffffffffffffffffffffffff83602003600802620006f9565b831692505b5050919050565b7f5061757361626c653a20706175736564000000000000000000000000000000005f82015250565b5f62000eb760108362000c74565b915062000ec48262000e81565b602082019050919050565b5f6020820190508181035f83015262000ee88162000ea9565b9050919050565b60805160a05160c05160e051610100516101205161014051612d4262000f415f395f61075a01525f61072601525f6117ec01525f6117cb01525f61106a01525f6110c001525f6110e90152612d425ff3fe608060405234801561000f575f80fd5b5060043610610171575f3560e01c806370a08231116100dc5780638da5cb5b11610095578063a9059cbb1161006f578063a9059cbb1461041b578063d505accf1461044b578063dd62ed3e14610467578063f2fde38b1461049757610171565b80638da5cb5b146103af57806395d89b41146103cd578063a457c2d7146103eb57610171565b806370a08231146102fb578063715018a61461032b57806379cc6790146103355780637ecebe00146103515780638456cb591461038157806384b0196e1461038b57610171565b80633644e5151161012e5780633644e5151461024d578063395093511461026b5780633f4ba83a1461029b57806340c10f19146102a557806342966c68146102c15780635c975abb146102dd57610171565b806306fdde0314610175578063095ea7b31461019357806318160ddd146101c357806323b872dd146101e15780632ff2e9dc14610211578063313ce5671461022f575b5f80fd5b61017d6104b3565b60405161018a9190611caf565b60405180910390f35b6101ad60048036038101906101a89190611d60565b610543565b6040516101ba9190611db8565b60405180910390f35b6101cb610565565b6040516101d89190611de0565b60405180910390f35b6101fb60048036038101906101f69190611df9565b61056e565b6040516102089190611db8565b60405180910390f35b61021961059c565b6040516102269190611de0565b60405180910390f35b6102376105a2565b6040516102449190611e64565b60405180910390f35b6102556105aa565b6040516102629190611e95565b60405180910390f35b61028560048036038101906102809190611d60565b6105b8565b6040516102929190611db8565b60405180910390f35b6102a36105ee565b005b6102bf60048036038101906102ba9190611d60565b610600565b005b6102db60048036038101906102d69190611eae565b610616565b005b6102e561062a565b6040516102f29190611db8565b60405180910390f35b61031560048036038101906103109190611ed9565b61063f565b6040516103229190611de0565b60405180910390f35b610333610684565b005b61034f600480360381019061034a9190611d60565b610697565b005b61036b60048036038101906103669190611ed9565b6106b7565b6040516103789190611de0565b60405180910390f35b610389610704565b005b610393610716565b6040516103a69796959493929190612004565b60405180910390f35b6103b7610813565b6040516103c49190612086565b60405180910390f35b6103d561083c565b6040516103e29190611caf565b60405180910390f35b61040560048036038101906104009190611d60565b6108cc565b6040516104129190611db8565b60405180910390f35b61043560048036038101906104309190611d60565b610941565b6040516104429190611db8565b60405180910390f35b610465600480360381019061046091906120f3565b610963565b005b610481600480360381019061047c9190612190565b610aa2565b60405161048e9190611de0565b60405180910390f35b6104b160048036038101906104ac9190611ed9565b610b24565b005b6060600380546104c2906121fb565b80601f01602080910402602001604051908101604052809291908181526020018280546104ee906121fb565b80156105395780601f1061051057610100808354040283529160200191610539565b820191905f5260205f20905b81548152906001019060200180831161051c57829003601f168201915b5050505050905090565b5f8061054d610ba6565b905061055a818585610bad565b600191505092915050565b5f600254905090565b5f80610578610ba6565b9050610585858285610d70565b610590858585610dfb565b60019150509392505050565b600a5481565b5f6012905090565b5f6105b3611067565b905090565b5f806105c2610ba6565b90506105e38185856105d48589610aa2565b6105de9190612258565b610bad565b600191505092915050565b6105f661111d565b6105fe61119b565b565b61060861111d565b61061282826111fc565b5050565b610627610621610ba6565b8261134a565b50565b5f60055f9054906101000a900460ff16905090565b5f805f8373ffffffffffffffffffffffffffffffffffffffff1673ffffffffffffffffffffffffffffffffffffffff1681526020019081526020015f20549050919050565b61068c61111d565b6106955f61150d565b565b6106a9826106a3610ba6565b83610d70565b6106b3828261134a565b5050565b5f6106fd60085f8473ffffffffffffffffffffffffffffffffffffffff1673ffffffffffffffffffffffffffffffffffffffff1681526020019081526020015f206115d2565b9050919050565b61070c61111d565b6107146115de565b565b5f6060805f805f606061075360067f000000000000000000000000000000000000000000000000000000000000000061164090919063ffffffff16565b61078760077f000000000000000000000000000000000000000000000000000000000000000061164090919063ffffffff16565b46305f801b5f67ffffffffffffffff8111156107a6576107a561228b565b5b6040519080825280602002602001820160405280156107d45781602001602082028036833780820191505090505b507f0f00000000000000000000000000000000000000000000000000000000000000959493929190965096509650965096509650965090919293949596565b5f600560019054906101000a900473ffffffffffffffffffffffffffffffffffffffff16905090565b60606004805461084b906121fb565b80601f0160208091040260200160405190810160405280929190818152602001828054610877906121fb565b80156108c25780601f10610899576101008083540402835291602001916108c2565b820191905f5260205f20905b8154815290600101906020018083116108a557829003601f168201915b5050505050905090565b5f806108d6610ba6565b90505f6108e38286610aa2565b905083811015610928576040517f08c379a000000000000000000000000000000000000000000000000000000000815260040161091f90612328565b60405180910390fd5b6109358286868403610bad565b60019250505092915050565b5f8061094b610ba6565b9050610958818585610dfb565b600191505092915050565b834211156109a6576040517f08c379a000000000000000000000000000000000000000000000000000000000815260040161099d90612390565b60405180910390fd5b5f7f6e71edae12b1b97f4d1f60370fef10105fa2faae0126114a169c64845d6126c98888886109d48c6116ed565b896040516020016109ea969594939291906123ae565b6040516020818303038152906040528051906020012090505f610a0c82611748565b90505f610a1b82878787611761565b90508973ffffffffffffffffffffffffffffffffffffffff168173ffffffffffffffffffffffffffffffffffffffff1614610a8b576040517f08c379a0000000000000000000000000000000000000000000000000000000008152600401610a8290612457565b60405180910390fd5b610a968a8a8a610bad565b50505050505050505050565b5f60015f8473ffffffffffffffffffffffffffffffffffffffff1673ffffffffffffffffffffffffffffffffffffffff1681526020019081526020015f205f8373ffffffffffffffffffffffffffffffffffffffff1673ffffffffffffffffffffffffffffffffffffffff1681526020019081526020015f2054905092915050565b610b2c61111d565b5f73ffffffffffffffffffffffffffffffffffffffff168173ffffffffffffffffffffffffffffffffffffffff1603610b9a576040517f08c379a0000000000000000000000000000000000000000000000000000000008152600401610b91906124e5565b60405180910390fd5b610ba38161150d565b50565b5f33905090565b5f73ffffffffffffffffffffffffffffffffffffffff168373ffffffffffffffffffffffffffffffffffffffff1603610c1b576040517f08c379a0000000000000000000000000000000000000000000000000000000008152600401610c1290612573565b60405180910390fd5b5f73ffffffffffffffffffffffffffffffffffffffff168273ffffffffffffffffffffffffffffffffffffffff1603610c89576040517f08c379a0000000000000000000000000000000000000000000000000000000008152600401610c8090612601565b60405180910390fd5b8060015f8573ffffffffffffffffffffffffffffffffffffffff1673ffffffffffffffffffffffffffffffffffffffff1681526020019081526020015f205f8473ffffffffffffffffffffffffffffffffffffffff1673ffffffffffffffffffffffffffffffffffffffff1681526020019081526020015f20819055508173ffffffffffffffffffffffffffffffffffffffff168373ffffffffffffffffffffffffffffffffffffffff167f8c5be1e5ebec7d5bd14f71427d1e84f3dd0314c0f7b2291e5b200ac8c7c3b92583604051610d639190611de0565b60405180910390a3505050565b5f610d7b8484610aa2565b90507fffffffffffffffffffffffffffffffffffffffffffffffffffffffffffffffff8114610df55781811015610de7576040517f08c379a0000000000000000000000000000000000000000000000000000000008152600401610dde90612669565b60405180910390fd5b610df48484848403610bad565b5b50505050565b5f73ffffffffffffffffffffffffffffffffffffffff168373ffffffffffffffffffffffffffffffffffffffff1603610e69576040517f08c379a0000000000000000000000000000000000000000000000000000000008152600401610e60906126f7565b60405180910390fd5b5f73ffffffffffffffffffffffffffffffffffffffff168273ffffffffffffffffffffffffffffffffffffffff1603610ed7576040517f08c379a0000000000000000000000000000000000000000000000000000000008152600401610ece90612785565b60405180910390fd5b610ee283838361178a565b5f805f8573ffffffffffffffffffffffffffffffffffffffff1673ffffffffffffffffffffffffffffffffffffffff1681526020019081526020015f2054905081811015610f65576040517f08c379a0000000000000000000000000000000000000000000000000000000008152600401610f5c90612813565b60405180910390fd5b8181035f808673ffffffffffffffffffffffffffffffffffffffff1673ffffffffffffffffffffffffffffffffffffffff1681526020019081526020015f2081905550815f808573ffffffffffffffffffffffffffffffffffffffff1673ffffffffffffffffffffffffffffffffffffffff1681526020019081526020015f205f82825401925050819055508273ffffffffffffffffffffffffffffffffffffffff168473ffffffffffffffffffffffffffffffffffffffff167fddf252ad1be2c89b69c2b068fc378daa952ba7f163c4a11628f55a4df523b3ef8460405161104e9190611de0565b60405180910390a36110618484846117a2565b50505050565b5f7f000000000000000000000000000000000000000000000000000000000000000073ffffffffffffffffffffffffffffffffffffffff163073ffffffffffffffffffffffffffffffffffffffff161480156110e257507f000000000000000000000000000000000000000000000000000000000000000046145b1561110f577f0000000000000000000000000000000000000000000000000000000000000000905061111a565b6111176117a7565b90505b90565b611125610ba6565b73ffffffffffffffffffffffffffffffffffffffff16611143610813565b73ffffffffffffffffffffffffffffffffffffffff1614611199576040517f08c379a00000000000000000000000000000000000000000000000000000000081526004016111909061287b565b60405180910390fd5b565b6111a361183c565b5f60055f6101000a81548160ff0219169083151502179055507f5db9ee0a495bf2e6ff9c91a7834c1ba4fdd244a5e8aa4e537bd38aeae4b073aa6111e5610ba6565b6040516111f29190612086565b60405180910390a1565b5f73ffffffffffffffffffffffffffffffffffffffff168273ffffffffffffffffffffffffffffffffffffffff160361126a576040517f08c379a0000000000000000000000000000000000000000000000000000000008152600401611261906128e3565b60405180910390fd5b6112755f838361178a565b8060025f8282546112869190612258565b92505081905550805f808473ffffffffffffffffffffffffffffffffffffffff1673ffffffffffffffffffffffffffffffffffffffff1681526020019081526020015f205f82825401925050819055508173ffffffffffffffffffffffffffffffffffffffff165f73ffffffffffffffffffffffffffffffffffffffff167fddf252ad1be2c89b69c2b068fc378daa952ba7f163c4a11628f55a4df523b3ef836040516113339190611de0565b60405180910390a36113465f83836117a2565b5050565b5f73ffffffffffffffffffffffffffffffffffffffff168273ffffffffffffffffffffffffffffffffffffffff16036113b8576040517f08c379a00000000000000000000000000000000000000000000000000000000081526004016113af90612971565b60405180910390fd5b6113c3825f8361178a565b5f805f8473ffffffffffffffffffffffffffffffffffffffff1673ffffffffffffffffffffffffffffffffffffffff1681526020019081526020015f2054905081811015611446576040517f08c379a000000000000000000000000000000000000000000000000000000000815260040161143d906129ff565b60405180910390fd5b8181035f808573ffffffffffffffffffffffffffffffffffffffff1673ffffffffffffffffffffffffffffffffffffffff1681526020019081526020015f20819055508160025f82825403925050819055505f73ffffffffffffffffffffffffffffffffffffffff168373ffffffffffffffffffffffffffffffffffffffff167fddf252ad1be2c89b69c2b068fc378daa952ba7f163c4a11628f55a4df523b3ef846040516114f59190611de0565b60405180910390a3611508835f846117a2565b505050565b5f600560019054906101000a900473ffffffffffffffffffffffffffffffffffffffff16905081600560016101000a81548173ffffffffffffffffffffffffffffffffffffffff021916908373ffffffffffffffffffffffffffffffffffffffff1602179055508173ffffffffffffffffffffffffffffffffffffffff168173ffffffffffffffffffffffffffffffffffffffff167f8be0079c531659141344cd1fd0a4f28419497f9722a3daafe3b4186f6b6457e060405160405180910390a35050565b5f815f01549050919050565b6115e6611885565b600160055f6101000a81548160ff0219169083151502179055507f62e78cea01bee320cd4e420270b5ea74000d11b0c9f74754ebdbfc544b05a258611629610ba6565b6040516116369190612086565b60405180910390a1565b606060ff5f1b831461165c57611655836118cf565b90506116e7565b818054611668906121fb565b80601f0160208091040260200160405190810160405280929190818152602001828054611694906121fb565b80156116df5780601f106116b6576101008083540402835291602001916116df565b820191905f5260205f20905b8154815290600101906020018083116116c257829003601f168201915b505050505090505b92915050565b5f8060085f8473ffffffffffffffffffffffffffffffffffffffff1673ffffffffffffffffffffffffffffffffffffffff1681526020019081526020015f209050611737816115d2565b915061174281611941565b50919050565b5f61175a611754611067565b83611955565b9050919050565b5f805f61177087878787611995565b9150915061177d81611a6d565b8192505050949350505050565b611792611885565b61179d838383611bd2565b505050565b505050565b5f7f8b73c3c69bb8fe3d512ecc4cf759cc79239f7b179b0ffacaa9a75d522b39400f7f00000000000000000000000000000000000000000000000000000000000000007f00000000000000000000000000000000000000000000000000000000000000004630604051602001611821959493929190612a1d565b60405160208183030381529060405280519060200120905090565b61184461062a565b611883576040517f08c379a000000000000000000000000000000000000000000000000000000000815260040161187a90612ab8565b60405180910390fd5b565b61188d61062a565b156118cd576040517f08c379a00000000000000000000000000000000000000000000000000000000081526004016118c490612b20565b60405180910390fd5b565b60605f6118db83611bd7565b90505f602067ffffffffffffffff8111156118f9576118f861228b565b5b6040519080825280601f01601f19166020018201604052801561192b5781602001600182028036833780820191505090505b5090508181528360208201528092505050919050565b6001815f015f828254019250508190555050565b5f6040517f190100000000000000000000000000000000000000000000000000000000000081528360028201528260228201526042812091505092915050565b5f807f7fffffffffffffffffffffffffffffff5d576e7357a4501ddfe92f46681b20a0835f1c11156119cd575f600391509150611a64565b5f6001878787876040515f81526020016040526040516119f09493929190612b3e565b6020604051602081039080840390855afa158015611a10573d5f803e3d5ffd5b5050506020604051035190505f73ffffffffffffffffffffffffffffffffffffffff168173ffffffffffffffffffffffffffffffffffffffff1603611a5c575f60019250925050611a64565b805f92509250505b94509492505050565b5f6004811115611a8057611a7f612b81565b5b816004811115611a9357611a92612b81565b5b0315611bcf5760016004811115611aad57611aac612b81565b5b816004811115611ac057611abf612b81565b5b03611b00576040517f08c379a0000000000000000000000000000000000000000000000000000000008152600401611af790612bf8565b60405180910390fd5b60026004811115611b1457611b13612b81565b5b816004811115611b2757611b26612b81565b5b03611b67576040517f08c379a0000000000000000000000000000000000000000000000000000000008152600401611b5e90612c60565b60405180910390fd5b60036004811115611b7b57611b7a612b81565b5b816004811115611b8e57611b8d612b81565b5b03611bce576040517f08c379a0000000000000000000000000000000000000000000000000000000008152600401611bc590612cee565b60405180910390fd5b5b50565b505050565b5f8060ff835f1c169050601f811115611c1c576040517fb3512b0c00000000000000000000000000000000000000000000000000000000815260040160405180910390fd5b80915050919050565b5f81519050919050565b5f82825260208201905092915050565b5f5b83811015611c5c578082015181840152602081019050611c41565b5f8484015250505050565b5f601f19601f8301169050919050565b5f611c8182611c25565b611c8b8185611c2f565b9350611c9b818560208601611c3f565b611ca481611c67565b840191505092915050565b5f6020820190508181035f830152611cc78184611c77565b905092915050565b5f80fd5b5f73ffffffffffffffffffffffffffffffffffffffff82169050919050565b5f611cfc82611cd3565b9050919050565b611d0c81611cf2565b8114611d16575f80fd5b50565b5f81359050611d2781611d03565b92915050565b5f819050919050565b611d3f81611d2d565b8114611d49575f80fd5b50565b5f81359050611d5a81611d36565b92915050565b5f8060408385031215611d7657611d75611ccf565b5b5f611d8385828601611d19565b9250506020611d9485828601611d4c565b9150509250929050565b5f8115159050919050565b611db281611d9e565b82525050565b5f602082019050611dcb5f830184611da9565b92915050565b611dda81611d2d565b82525050565b5f602082019050611df35f830184611dd1565b92915050565b5f805f60608486031215611e1057611e0f611ccf565b5b5f611e1d86828701611d19565b9350506020611e2e86828701611d19565b9250506040611e3f86828701611d4c565b9150509250925092565b5f60ff82169050919050565b611e5e81611e49565b82525050565b5f602082019050611e775f830184611e55565b92915050565b5f819050919050565b611e8f81611e7d565b82525050565b5f602082019050611ea85f830184611e86565b92915050565b5f60208284031215611ec357611ec2611ccf565b5b5f611ed084828501611d4c565b91505092915050565b5f60208284031215611eee57611eed611ccf565b5b5f611efb84828501611d19565b91505092915050565b5f7fff0000000000000000000000000000000000000000000000000000000000000082169050919050565b611f3881611f04565b82525050565b611f4781611cf2565b82525050565b5f81519050919050565b5f82825260208201905092915050565b5f819050602082019050919050565b611f7f81611d2d565b82525050565b5f611f908383611f76565b60208301905092915050565b5f602082019050919050565b5f611fb282611f4d565b611fbc8185611f57565b9350611fc783611f67565b805f5b83811015611ff7578151611fde8882611f85565b9750611fe983611f9c565b925050600181019050611fca565b5085935050505092915050565b5f60e0820190506120175f83018a611f2f565b81810360208301526120298189611c77565b9050818103604083015261203d8188611c77565b905061204c6060830187611dd1565b6120596080830186611f3e565b61206660a0830185611e86565b81810360c08301526120788184611fa8565b905098975050505050505050565b5f6020820190506120995f830184611f3e565b92915050565b6120a881611e49565b81146120b2575f80fd5b50565b5f813590506120c38161209f565b92915050565b6120d281611e7d565b81146120dc575f80fd5b50565b5f813590506120ed816120c9565b92915050565b5f805f805f805f60e0888a03121561210e5761210d611ccf565b5b5f61211b8a828b01611d19565b975050602061212c8a828b01611d19565b965050604061213d8a828b01611d4c565b955050606061214e8a828b01611d4c565b945050608061215f8a828b016120b5565b93505060a06121708a828b016120df565b92505060c06121818a828b016120df565b91505092959891949750929550565b5f80604083850312156121a6576121a5611ccf565b5b5f6121b385828601611d19565b92505060206121c485828601611d19565b9150509250929050565b7f4e487b71000000000000000000000000000000000000000000000000000000005f52602260045260245ffd5b5f600282049050600182168061221257607f821691505b602082108103612225576122246121ce565b5b50919050565b7f4e487b71000000000000000000000000000000000000000000000000000000005f52601160045260245ffd5b5f61226282611d2d565b915061226d83611d2d565b92508282019050808211156122855761228461222b565b5b92915050565b7f4e487b71000000000000000000000000000000000000000000000000000000005f52604160045260245ffd5b7f45524332303a2064656372656173656420616c6c6f77616e63652062656c6f775f8201527f207a65726f000000000000000000000000000000000000000000000000000000602082015250565b5f612312602583611c2f565b915061231d826122b8565b604082019050919050565b5f6020820190508181035f83015261233f81612306565b9050919050565b7f45524332305065726d69743a206578706972656420646561646c696e650000005f82015250565b5f61237a601d83611c2f565b915061238582612346565b602082019050919050565b5f6020820190508181035f8301526123a78161236e565b9050919050565b5f60c0820190506123c15f830189611e86565b6123ce6020830188611f3e565b6123db6040830187611f3e565b6123e86060830186611dd1565b6123f56080830185611dd1565b61240260a0830184611dd1565b979650505050505050565b7f45524332305065726d69743a20696e76616c6964207369676e617475726500005f82015250565b5f612441601e83611c2f565b915061244c8261240d565b602082019050919050565b5f6020820190508181035f83015261246e81612435565b9050919050565b7f4f776e61626c653a206e6577206f776e657220697320746865207a65726f20615f8201527f6464726573730000000000000000000000000000000000000000000000000000602082015250565b5f6124cf602683611c2f565b91506124da82612475565b604082019050919050565b5f6020820190508181035f8301526124fc816124c3565b9050919050565b7f45524332303a20617070726f76652066726f6d20746865207a65726f206164645f8201527f7265737300000000000000000000000000000000000000000000000000000000602082015250565b5f61255d602483611c2f565b915061256882612503565b604082019050919050565b5f6020820190508181035f83015261258a81612551565b9050919050565b7f45524332303a20617070726f766520746f20746865207a65726f2061646472655f8201527f7373000000000000000000000000000000000000000000000000000000000000602082015250565b5f6125eb602283611c2f565b91506125f682612591565b604082019050919050565b5f6020820190508181035f830152612618816125df565b9050919050565b7f45524332303a20696e73756666696369656e7420616c6c6f77616e63650000005f82015250565b5f612653601d83611c2f565b915061265e8261261f565b602082019050919050565b5f6020820190508181035f83015261268081612647565b9050919050565b7f45524332303a207472616e736665722066726f6d20746865207a65726f2061645f8201527f6472657373000000000000000000000000000000000000000000000000000000602082015250565b5f6126e1602583611c2f565b91506126ec82612687565b604082019050919050565b5f6020820190508181035f83015261270e816126d5565b9050919050565b7f45524332303a207472616e7366657220746f20746865207a65726f20616464725f8201527f6573730000000000000000000000000000000000000000000000000000000000602082015250565b5f61276f602383611c2f565b915061277a82612715565b604082019050919050565b5f6020820190508181035f83015261279c81612763565b9050919050565b7f45524332303a207472616e7366657220616d6f756e74206578636565647320625f8201527f616c616e63650000000000000000000000000000000000000000000000000000602082015250565b5f6127fd602683611c2f565b9150612808826127a3565b604082019050919050565b5f6020820190508181035f83015261282a816127f1565b9050919050565b7f4f776e61626c653a2063616c6c6572206973206e6f7420746865206f776e65725f82015250565b5f612865602083611c2f565b915061287082612831565b602082019050919050565b5f6020820190508181035f83015261289281612859565b9050919050565b7f45524332303a206d696e7420746f20746865207a65726f2061646472657373005f82015250565b5f6128cd601f83611c2f565b91506128d882612899565b602082019050919050565b5f6020820190508181035f8301526128fa816128c1565b9050919050565b7f45524332303a206275726e2066726f6d20746865207a65726f206164647265735f8201527f7300000000000000000000000000000000000000000000000000000000000000602082015250565b5f61295b602183611c2f565b915061296682612901565b604082019050919050565b5f6020820190508181035f8301526129888161294f565b9050919050565b7f45524332303a206275726e20616d6f756e7420657863656564732062616c616e5f8201527f6365000000000000000000000000000000000000000000000000000000000000602082015250565b5f6129e9602283611c2f565b91506129f48261298f565b604082019050919050565b5f6020820190508181035f830152612a16816129dd565b9050919050565b5f60a082019050612a305f830188611e86565b612a3d6020830187611e86565b612a4a6040830186611e86565b612a576060830185611dd1565b612a646080830184611f3e565b9695505050505050565b7f5061757361626c653a206e6f74207061757365640000000000000000000000005f82015250565b5f612aa2601483611c2f565b9150612aad82612a6e565b602082019050919050565b5f6020820190508181035f830152612acf81612a96565b9050919050565b7f5061757361626c653a20706175736564000000000000000000000000000000005f82015250565b5f612b0a601083611c2f565b9150612b1582612ad6565b602082019050919050565b5f6020820190508181035f830152612b3781612afe565b9050919050565b5f608082019050612b515f830187611e86565b612b5e6020830186611e55565b612b6b6040830185611e86565b612b786060830184611e86565b95945050505050565b7f4e487b71000000000000000000000000000000000000000000000000000000005f52602160045260245ffd5b7f45434453413a20696e76616c6964207369676e617475726500000000000000005f82015250565b5f612be2601883611c2f565b9150612bed82612bae565b602082019050919050565b5f6020820190508181035f830152612c0f81612bd6565b9050919050565b7f45434453413a20696e76616c6964207369676e6174757265206c656e677468005f82015250565b5f612c4a601f83611c2f565b9150612c5582612c16565b602082019050919050565b5f6020820190508181035f830152612c7781612c3e565b9050919050565b7f45434453413a20696e76616c6964207369676e6174757265202773272076616c5f8201527f7565000000000000000000000000000000000000000000000000000000000000602082015250565b5f612cd8602283611c2f565b9150612ce382612c7e565b604082019050919050565b5f6020820190508181035f830152612d0581612ccc565b905091905056fea2646970667358221220725bbf6b843a3aab6ad19cc11a71a77f28c21ae227405a7a08a37e0a8ca5340f64736f6c63430008150033",
  "immutableReferences": {
    "2221": [
      {
        "length": 32,
        "start": 4329
      }
    ],
    "2223": [
      {
        "length": 32,
        "start": 4288
      }
    ],
    "2225": [
      {
        "length": 32,
        "start": 4202
      }
    ],
    "2227": [
      {
        "length": 32,
        "start": 6091
      }
    ],
    "2229": [
      {
        "length": 32,
        "start": 6124
      }
    ],
    "2232": [
      {
        "length": 32,
        "start": 1830
      }
    ],
    "2235": [
      {
        "length": 32,
        "start": 1882
      }
    ]
  },
  "source": "// SPDX-License-Identifier: MIT\npragma solidity ^0.8.9;\n\nimport \"@openzeppelin/contracts/token/ERC20/ERC20.sol\";\nimport \"@openzeppelin/contracts/token/ERC20/extensions/ERC20Burnable.sol\";\nimport \"@openzeppelin/contracts/security/Pausable.sol\";\nimport \"@openzeppelin/contracts/access/Ownable.sol\";\nimport \"@openzeppelin/contracts/token/ERC20/extensions/ERC20Permit.sol\";\n\n/// @custom:security-contact developer@baligames.xyz\ncontract CubeToken2 is ERC20, ERC20Burnable, Pausable, Ownable, ERC20Permit {\n\n    uint public INITIAL_SUPPLY = 2_000_000_000;\n\n    constructor() ERC20(\"Cube Token Baligames\", \"CUBE2\") ERC20Permit(\"CubeToken2\") {\n        _mint(msg.sender, INITIAL_SUPPLY * 10 ** decimals()); // decimals value 18\n    }\n\n    function pause() public onlyOwner {\n        _pause();\n    }\n\n    function unpause() public onlyOwner {\n        _unpause();\n    }\n\n    function mint(address to, uint256 amount) public onlyOwner {\n        _mint(to, amount);\n    }\n\n    function _beforeTokenTransfer(address from, address to, uint256 amount)\n        internal\n        whenNotPaused\n        override\n    {\n        super._beforeTokenTransfer(from, to, amount);\n    }\n}",
  "sourcePath": "/Users/wonick/work/cube-token/contracts/CubeToken.sol",
  "compiler": {
    "name": "solc",
    "version": "0.8.21+commit.d9974bed.Emscripten.clang"
  },
  "schemaVersion": "3.4.16",
  "updatedAt": "2023-09-25T10:08:05.547Z",
  "networkType": "ethereum",
  "devdoc": {
    "custom:security-contact": "developer@baligames.xyz",
    "events": {
      "Approval(address,address,uint256)": {
        "details": "Emitted when the allowance of a `spender` for an `owner` is set by a call to {approve}. `value` is the new allowance."
      },
      "EIP712DomainChanged()": {
        "details": "MAY be emitted to signal that the domain could have changed."
      },
      "Paused(address)": {
        "details": "Emitted when the pause is triggered by `account`."
      },
      "Transfer(address,address,uint256)": {
        "details": "Emitted when `value` tokens are moved from one account (`from`) to another (`to`). Note that `value` may be zero."
      },
      "Unpaused(address)": {
        "details": "Emitted when the pause is lifted by `account`."
      }
    },
    "kind": "dev",
    "methods": {
      "DOMAIN_SEPARATOR()": {
        "details": "See {IERC20Permit-DOMAIN_SEPARATOR}."
      },
      "allowance(address,address)": {
        "details": "See {IERC20-allowance}."
      },
      "approve(address,uint256)": {
        "details": "See {IERC20-approve}. NOTE: If `amount` is the maximum `uint256`, the allowance is not updated on `transferFrom`. This is semantically equivalent to an infinite approval. Requirements: - `spender` cannot be the zero address."
      },
      "balanceOf(address)": {
        "details": "See {IERC20-balanceOf}."
      },
      "burn(uint256)": {
        "details": "Destroys `amount` tokens from the caller. See {ERC20-_burn}."
      },
      "burnFrom(address,uint256)": {
        "details": "Destroys `amount` tokens from `account`, deducting from the caller's allowance. See {ERC20-_burn} and {ERC20-allowance}. Requirements: - the caller must have allowance for ``accounts``'s tokens of at least `amount`."
      },
      "decimals()": {
        "details": "Returns the number of decimals used to get its user representation. For example, if `decimals` equals `2`, a balance of `505` tokens should be displayed to a user as `5.05` (`505 / 10 ** 2`). Tokens usually opt for a value of 18, imitating the relationship between Ether and Wei. This is the default value returned by this function, unless it's overridden. NOTE: This information is only used for _display_ purposes: it in no way affects any of the arithmetic of the contract, including {IERC20-balanceOf} and {IERC20-transfer}."
      },
      "decreaseAllowance(address,uint256)": {
        "details": "Atomically decreases the allowance granted to `spender` by the caller. This is an alternative to {approve} that can be used as a mitigation for problems described in {IERC20-approve}. Emits an {Approval} event indicating the updated allowance. Requirements: - `spender` cannot be the zero address. - `spender` must have allowance for the caller of at least `subtractedValue`."
      },
      "eip712Domain()": {
        "details": "See {EIP-5267}. _Available since v4.9._"
      },
      "increaseAllowance(address,uint256)": {
        "details": "Atomically increases the allowance granted to `spender` by the caller. This is an alternative to {approve} that can be used as a mitigation for problems described in {IERC20-approve}. Emits an {Approval} event indicating the updated allowance. Requirements: - `spender` cannot be the zero address."
      },
      "name()": {
        "details": "Returns the name of the token."
      },
      "nonces(address)": {
        "details": "See {IERC20Permit-nonces}."
      },
      "owner()": {
        "details": "Returns the address of the current owner."
      },
      "paused()": {
        "details": "Returns true if the contract is paused, and false otherwise."
      },
      "permit(address,address,uint256,uint256,uint8,bytes32,bytes32)": {
        "details": "See {IERC20Permit-permit}."
      },
      "renounceOwnership()": {
        "details": "Leaves the contract without owner. It will not be possible to call `onlyOwner` functions. Can only be called by the current owner. NOTE: Renouncing ownership will leave the contract without an owner, thereby disabling any functionality that is only available to the owner."
      },
      "symbol()": {
        "details": "Returns the symbol of the token, usually a shorter version of the name."
      },
      "totalSupply()": {
        "details": "See {IERC20-totalSupply}."
      },
      "transfer(address,uint256)": {
        "details": "See {IERC20-transfer}. Requirements: - `to` cannot be the zero address. - the caller must have a balance of at least `amount`."
      },
      "transferFrom(address,address,uint256)": {
        "details": "See {IERC20-transferFrom}. Emits an {Approval} event indicating the updated allowance. This is not required by the EIP. See the note at the beginning of {ERC20}. NOTE: Does not update the allowance if the current allowance is the maximum `uint256`. Requirements: - `from` and `to` cannot be the zero address. - `from` must have a balance of at least `amount`. - the caller must have allowance for ``from``'s tokens of at least `amount`."
      },
      "transferOwnership(address)": {
        "details": "Transfers ownership of the contract to a new account (`newOwner`). Can only be called by the current owner."
      }
    },
    "version": 1
  },
  "userdoc": {
    "kind": "user",
    "methods": {},
    "version": 1
  }
}